{"abi":[{"type":"constructor","inputs":[{"name":"_amm","type":"address","internalType":"address"}],"stateMutability":"nonpayable"},{"type":"function","name":"allowance","inputs":[{"name":"","type":"address","internalType":"address"},{"name":"","type":"address","internalType":"address"}],"outputs":[{"name":"","type":"uint256","internalType":"uint256"}],"stateMutability":"view"},{"type":"function","name":"amm","inputs":[],"outputs":[{"name":"","type":"address","internalType":"address"}],"stateMutability":"view"},{"type":"function","name":"approve","inputs":[{"name":"spender","type":"address","internalType":"address"},{"name":"amount","type":"uint256","internalType":"uint256"}],"outputs":[{"name":"","type":"bool","internalType":"bool"}],"stateMutability":"nonpayable"},{"type":"function","name":"balanceOf","inputs":[{"name":"","type":"address","internalType":"address"}],"outputs":[{"name":"","type":"uint256","internalType":"uint256"}],"stateMutability":"view"},{"type":"function","name":"burn","inputs":[{"name":"from","type":"address","internalType":"address"},{"name":"amount","type":"uint256","internalType":"uint256"}],"outputs":[],"stateMutability":"nonpayable"},{"type":"function","name":"decimals","inputs":[],"outputs":[{"name":"","type":"uint8","internalType":"uint8"}],"stateMutability":"view"},{"type":"function","name":"mint","inputs":[{"name":"to","type":"address","internalType":"address"},{"name":"amount","type":"uint256","internalType":"uint256"}],"outputs":[],"stateMutability":"nonpayable"},{"type":"function","name":"name","inputs":[],"outputs":[{"name":"","type":"string","internalType":"string"}],"stateMutability":"view"},{"type":"function","name":"symbol","inputs":[],"outputs":[{"name":"","type":"string","internalType":"string"}],"stateMutability":"view"},{"type":"function","name":"totalSupply","inputs":[],"outputs":[{"name":"","type":"uint256","internalType":"uint256"}],"stateMutability":"view"},{"type":"function","name":"transfer","inputs":[{"name":"to","type":"address","internalType":"address"},{"name":"amount","type":"uint256","internalType":"uint256"}],"outputs":[{"name":"","type":"bool","internalType":"bool"}],"stateMutability":"nonpayable"},{"type":"function","name":"transferFrom","inputs":[{"name":"from","type":"address","internalType":"address"},{"name":"to","type":"address","internalType":"address"},{"name":"amount","type":"uint256","internalType":"uint256"}],"outputs":[{"name":"","type":"bool","internalType":"bool"}],"stateMutability":"nonpayable"},{"type":"event","name":"Approval","inputs":[{"name":"owner","type":"address","indexed":true,"internalType":"address"},{"name":"spender","type":"address","indexed":true,"internalType":"address"},{"name":"value","type":"uint256","indexed":false,"internalType":"uint256"}],"anonymous":false},{"type":"event","name":"Transfer","inputs":[{"name":"from","type":"address","indexed":true,"internalType":"address"},{"name":"to","type":"address","indexed":true,"internalType":"address"},{"name":"value","type":"uint256","indexed":false,"internalType":"uint256"}],"anonymous":false}],"bytecode":{"object":"0x60c060405260086080908152672628102a37b5b2b760c11b60a0525f9062000028908262000155565b5060408051808201909152600381526213141560ea1b602082015260019062000052908262000155565b506002805460ff191660121790553480156200006c575f80fd5b5060405162000b8138038062000b818339810160408190526200008f916200021d565b600680546001600160a01b0319166001600160a01b03929092169190911790556200024c565b634e487b7160e01b5f52604160045260245ffd5b600181811c90821680620000de57607f821691505b602082108103620000fd57634e487b7160e01b5f52602260045260245ffd5b50919050565b601f82111562000150575f81815260208120601f850160051c810160208610156200012b5750805b601f850160051c820191505b818110156200014c5782815560010162000137565b5050505b505050565b81516001600160401b03811115620001715762000171620000b5565b6200018981620001828454620000c9565b8462000103565b602080601f831160018114620001bf575f8415620001a75750858301515b5f19600386901b1c1916600185901b1785556200014c565b5f85815260208120601f198616915b82811015620001ef57888601518255948401946001909101908401620001ce565b50858210156200020d57878501515f19600388901b60f8161c191681555b5050505050600190811b01905550565b5f602082840312156200022e575f80fd5b81516001600160a01b038116811462000245575f80fd5b9392505050565b610927806200025a5f395ff3fe608060405234801561000f575f80fd5b50600436106100b1575f3560e01c806340c10f191161006e57806340c10f191461016a57806370a082311461017f57806395d89b411461019e5780639dc29fac146101a6578063a9059cbb146101b9578063dd62ed3e146101cc575f80fd5b806306fdde03146100b5578063095ea7b3146100d357806318160ddd146100f657806323b872dd1461010d5780632a94394514610120578063313ce5671461014b575b5f80fd5b6100bd6101f6565b6040516100ca9190610719565b60405180910390f35b6100e66100e136600461077f565b610281565b60405190151581526020016100ca565b6100ff60035481565b6040519081526020016100ca565b6100e661011b3660046107a7565b6102ed565b600654610133906001600160a01b031681565b6040516001600160a01b0390911681526020016100ca565b6002546101589060ff1681565b60405160ff90911681526020016100ca565b61017d61017836600461077f565b61046d565b005b6100ff61018d3660046107e0565b60046020525f908152604090205481565b6100bd610526565b61017d6101b436600461077f565b610533565b6100e66101c736600461077f565b61061b565b6100ff6101da366004610800565b600560209081525f928352604080842090915290825290205481565b5f805461020290610831565b80601f016020809104026020016040519081016040528092919081815260200182805461022e90610831565b80156102795780601f1061025057610100808354040283529160200191610279565b820191905f5260205f20905b81548152906001019060200180831161025c57829003601f168201915b505050505081565b335f8181526005602090815260408083206001600160a01b038716808552925280832085905551919290917f8c5be1e5ebec7d5bd14f71427d1e84f3dd0314c0f7b2291e5b200ac8c7c3b925906102db9086815260200190565b60405180910390a35060015b92915050565b6001600160a01b0383165f9081526004602052604081205482111561032d5760405162461bcd60e51b815260040161032490610869565b60405180910390fd5b6001600160a01b0384165f9081526005602090815260408083203384529091529020548211156103985760405162461bcd60e51b8152602060048201526016602482015275496e73756666696369656e7420616c6c6f77616e636560501b6044820152606401610324565b6001600160a01b0384165f908152600560209081526040808320338452909152812080548492906103ca9084906108ab565b90915550506001600160a01b0384165f90815260046020526040812080548492906103f69084906108ab565b90915550506001600160a01b0383165f90815260046020526040812080548492906104229084906108be565b92505081905550826001600160a01b0316846001600160a01b03165f805160206108d28339815191528460405161045b91815260200190565b60405180910390a35060019392505050565b6006546001600160a01b031633146104b25760405162461bcd60e51b81526020600482015260086024820152674f6e6c7920414d4d60c01b6044820152606401610324565b8060035f8282546104c391906108be565b90915550506001600160a01b0382165f90815260046020526040812080548392906104ef9084906108be565b90915550506040518181526001600160a01b038316905f905f805160206108d2833981519152906020015b60405180910390a35050565b6001805461020290610831565b6006546001600160a01b031633146105785760405162461bcd60e51b81526020600482015260086024820152674f6e6c7920414d4d60c01b6044820152606401610324565b6001600160a01b0382165f908152600460205260409020548111156105af5760405162461bcd60e51b815260040161032490610869565b8060035f8282546105c091906108ab565b90915550506001600160a01b0382165f90815260046020526040812080548392906105ec9084906108ab565b90915550506040518181525f906001600160a01b038416905f805160206108d28339815191529060200161051a565b5f6001600160a01b0383166106725760405162461bcd60e51b815260206004820152601860248201527f5472616e7366657220746f207a65726f206164647265737300000000000000006044820152606401610324565b335f908152600460205260409020548211156106a05760405162461bcd60e51b815260040161032490610869565b335f90815260046020526040812080548492906106be9084906108ab565b90915550506001600160a01b0383165f90815260046020526040812080548492906106ea9084906108be565b90915550506040518281526001600160a01b0384169033905f805160206108d2833981519152906020016102db565b5f6020808352835180828501525f5b8181101561074457858101830151858201604001528201610728565b505f604082860101526040601f19601f8301168501019250505092915050565b80356001600160a01b038116811461077a575f80fd5b919050565b5f8060408385031215610790575f80fd5b61079983610764565b946020939093013593505050565b5f805f606084860312156107b9575f80fd5b6107c284610764565b92506107d060208501610764565b9150604084013590509250925092565b5f602082840312156107f0575f80fd5b6107f982610764565b9392505050565b5f8060408385031215610811575f80fd5b61081a83610764565b915061082860208401610764565b90509250929050565b600181811c9082168061084557607f821691505b60208210810361086357634e487b7160e01b5f52602260045260245ffd5b50919050565b602080825260149082015273496e73756666696369656e742062616c616e636560601b604082015260600190565b634e487b7160e01b5f52601160045260245ffd5b818103818111156102e7576102e7610897565b808201808211156102e7576102e761089756feddf252ad1be2c89b69c2b068fc378daa952ba7f163c4a11628f55a4df523b3efa26469706673582212206140820c3b87d4643b5cb31eba4f68ef0425af4ec94391ea77f6b7697562982264736f6c63430008140033","linkReferences":{}},"methodIdentifiers":{"allowance(address,address)":"dd62ed3e","amm()":"2a943945","approve(address,uint256)":"095ea7b3","balanceOf(address)":"70a08231","burn(address,uint256)":"9dc29fac","decimals()":"313ce567","mint(address,uint256)":"40c10f19","name()":"06fdde03","symbol()":"95d89b41","totalSupply()":"18160ddd","transfer(address,uint256)":"a9059cbb","transferFrom(address,address,uint256)":"23b872dd"},"id":21}