{"abi":[{"type":"constructor","inputs":[{"name":"_name","type":"string","internalType":"string"},{"name":"_symbol","type":"string","internalType":"string"},{"name":"_initialSupply","type":"uint256","internalType":"uint256"}],"stateMutability":"nonpayable"},{"type":"function","name":"allowance","inputs":[{"name":"","type":"address","internalType":"address"},{"name":"","type":"address","internalType":"address"}],"outputs":[{"name":"","type":"uint256","internalType":"uint256"}],"stateMutability":"view"},{"type":"function","name":"approve","inputs":[{"name":"spender","type":"address","internalType":"address"},{"name":"amount","type":"uint256","internalType":"uint256"}],"outputs":[{"name":"","type":"bool","internalType":"bool"}],"stateMutability":"nonpayable"},{"type":"function","name":"balanceOf","inputs":[{"name":"","type":"address","internalType":"address"}],"outputs":[{"name":"","type":"uint256","internalType":"uint256"}],"stateMutability":"view"},{"type":"function","name":"burn","inputs":[{"name":"from","type":"address","internalType":"address"},{"name":"amount","type":"uint256","internalType":"uint256"}],"outputs":[],"stateMutability":"nonpayable"},{"type":"function","name":"decimals","inputs":[],"outputs":[{"name":"","type":"uint8","internalType":"uint8"}],"stateMutability":"view"},{"type":"function","name":"mint","inputs":[{"name":"to","type":"address","internalType":"address"},{"name":"amount","type":"uint256","internalType":"uint256"}],"outputs":[],"stateMutability":"nonpayable"},{"type":"function","name":"name","inputs":[],"outputs":[{"name":"","type":"string","internalType":"string"}],"stateMutability":"view"},{"type":"function","name":"symbol","inputs":[],"outputs":[{"name":"","type":"string","internalType":"string"}],"stateMutability":"view"},{"type":"function","name":"totalSupply","inputs":[],"outputs":[{"name":"","type":"uint256","internalType":"uint256"}],"stateMutability":"view"},{"type":"function","name":"transfer","inputs":[{"name":"to","type":"address","internalType":"address"},{"name":"amount","type":"uint256","internalType":"uint256"}],"outputs":[{"name":"","type":"bool","internalType":"bool"}],"stateMutability":"nonpayable"},{"type":"function","name":"transferFrom","inputs":[{"name":"from","type":"address","internalType":"address"},{"name":"to","type":"address","internalType":"address"},{"name":"amount","type":"uint256","internalType":"uint256"}],"outputs":[{"name":"","type":"bool","internalType":"bool"}],"stateMutability":"nonpayable"},{"type":"event","name":"Approval","inputs":[{"name":"owner","type":"address","indexed":true,"internalType":"address"},{"name":"spender","type":"address","indexed":true,"internalType":"address"},{"name":"value","type":"uint256","indexed":false,"internalType":"uint256"}],"anonymous":false},{"type":"event","name":"Transfer","inputs":[{"name":"from","type":"address","indexed":true,"internalType":"address"},{"name":"to","type":"address","indexed":true,"internalType":"address"},{"name":"value","type":"uint256","indexed":false,"internalType":"uint256"}],"anonymous":false}],"bytecode":{"object":"0x60806040526002805460ff191660121790553480156200001d575f80fd5b5060405162000d6838038062000d68833981016040819052620000409162000215565b5f6200004d84826200030f565b5060016200005c83826200030f565b5062000069338262000072565b505050620003fd565b6001600160a01b038216620000cd5760405162461bcd60e51b815260206004820152601460248201527f4d696e7420746f207a65726f2061646472657373000000000000000000000000604482015260640160405180910390fd5b8060035f828254620000e09190620003d7565b90915550506001600160a01b0382165f90815260046020526040812080548392906200010e908490620003d7565b90915550506040518181526001600160a01b038316905f907fddf252ad1be2c89b69c2b068fc378daa952ba7f163c4a11628f55a4df523b3ef9060200160405180910390a35050565b634e487b7160e01b5f52604160045260245ffd5b5f82601f8301126200017b575f80fd5b81516001600160401b038082111562000198576200019862000157565b604051601f8301601f19908116603f01168101908282118183101715620001c357620001c362000157565b81604052838152602092508683858801011115620001df575f80fd5b5f91505b83821015620002025785820183015181830184015290820190620001e3565b5f93810190920192909252949350505050565b5f805f6060848603121562000228575f80fd5b83516001600160401b03808211156200023f575f80fd5b6200024d878388016200016b565b9450602086015191508082111562000263575f80fd5b5062000272868287016200016b565b925050604084015190509250925092565b600181811c908216806200029857607f821691505b602082108103620002b757634e487b7160e01b5f52602260045260245ffd5b50919050565b601f8211156200030a575f81815260208120601f850160051c81016020861015620002e55750805b601f850160051c820191505b818110156200030657828155600101620002f1565b5050505b505050565b81516001600160401b038111156200032b576200032b62000157565b62000343816200033c845462000283565b84620002bd565b602080601f83116001811462000379575f8415620003615750858301515b5f19600386901b1c1916600185901b17855562000306565b5f85815260208120601f198616915b82811015620003a95788860151825594840194600190910190840162000388565b5085821015620003c757878501515f19600388901b60f8161c191681555b5050505050600190811b01905550565b80820180821115620003f757634e487b7160e01b5f52601160045260245ffd5b92915050565b61095d806200040b5f395ff3fe608060405234801561000f575f80fd5b50600436106100a6575f3560e01c806340c10f191161006e57806340c10f191461013457806370a082311461014957806395d89b41146101685780639dc29fac14610170578063a9059cbb14610183578063dd62ed3e14610196575f80fd5b806306fdde03146100aa578063095ea7b3146100c857806318160ddd146100eb57806323b872dd14610102578063313ce56714610115575b5f80fd5b6100b26101c0565b6040516100bf919061074f565b60405180910390f35b6100db6100d63660046107b5565b61024b565b60405190151581526020016100bf565b6100f460035481565b6040519081526020016100bf565b6100db6101103660046107dd565b61030c565b6002546101229060ff1681565b60405160ff90911681526020016100bf565b6101476101423660046107b5565b6104d5565b005b6100f4610157366004610816565b60046020525f908152604090205481565b6100b26104e3565b61014761017e3660046107b5565b6104f0565b6100db6101913660046107b5565b61059d565b6100f46101a4366004610836565b600560209081525f928352604080842090915290825290205481565b5f80546101cc90610867565b80601f01602080910402602001604051908101604052809291908181526020018280546101f890610867565b80156102435780601f1061021a57610100808354040283529160200191610243565b820191905f5260205f20905b81548152906001019060200180831161022657829003601f168201915b505050505081565b5f6001600160a01b0383166102a75760405162461bcd60e51b815260206004820152601760248201527f417070726f766520746f207a65726f206164647265737300000000000000000060448201526064015b60405180910390fd5b335f8181526005602090815260408083206001600160a01b03881680855290835292819020869055518581529192917f8c5be1e5ebec7d5bd14f71427d1e84f3dd0314c0f7b2291e5b200ac8c7c3b92591015b60405180910390a35060015b92915050565b5f6001600160a01b03831661035e5760405162461bcd60e51b81526020600482015260186024820152775472616e7366657220746f207a65726f206164647265737360401b604482015260640161029e565b6001600160a01b0384165f908152600460205260409020548211156103955760405162461bcd60e51b815260040161029e9061089f565b6001600160a01b0384165f9081526005602090815260408083203384529091529020548211156104005760405162461bcd60e51b8152602060048201526016602482015275496e73756666696369656e7420616c6c6f77616e636560501b604482015260640161029e565b6001600160a01b0384165f908152600560209081526040808320338452909152812080548492906104329084906108e1565b90915550506001600160a01b0384165f908152600460205260408120805484929061045e9084906108e1565b90915550506001600160a01b0383165f908152600460205260408120805484929061048a9084906108f4565b92505081905550826001600160a01b0316846001600160a01b03165f80516020610908833981519152846040516104c391815260200190565b60405180910390a35060019392505050565b6104df8282610696565b5050565b600180546101cc90610867565b6001600160a01b0382165f908152600460205260409020548111156105275760405162461bcd60e51b815260040161029e9061089f565b6001600160a01b0382165f908152600460205260408120805483929061054e9084906108e1565b925050819055508060035f82825461056691906108e1565b90915550506040518181525f906001600160a01b038416905f80516020610908833981519152906020015b60405180910390a35050565b5f6001600160a01b0383166105ef5760405162461bcd60e51b81526020600482015260186024820152775472616e7366657220746f207a65726f206164647265737360401b604482015260640161029e565b335f9081526004602052604090205482111561061d5760405162461bcd60e51b815260040161029e9061089f565b335f908152600460205260408120805484929061063b9084906108e1565b90915550506001600160a01b0383165f90815260046020526040812080548492906106679084906108f4565b90915550506040518281526001600160a01b0384169033905f80516020610908833981519152906020016102fa565b6001600160a01b0382166106e35760405162461bcd60e51b81526020600482015260146024820152734d696e7420746f207a65726f206164647265737360601b604482015260640161029e565b8060035f8282546106f491906108f4565b90915550506001600160a01b0382165f90815260046020526040812080548392906107209084906108f4565b90915550506040518181526001600160a01b038316905f905f8051602061090883398151915290602001610591565b5f6020808352835180828501525f5b8181101561077a5785810183015185820160400152820161075e565b505f604082860101526040601f19601f8301168501019250505092915050565b80356001600160a01b03811681146107b0575f80fd5b919050565b5f80604083850312156107c6575f80fd5b6107cf8361079a565b946020939093013593505050565b5f805f606084860312156107ef575f80fd5b6107f88461079a565b92506108066020850161079a565b9150604084013590509250925092565b5f60208284031215610826575f80fd5b61082f8261079a565b9392505050565b5f8060408385031215610847575f80fd5b6108508361079a565b915061085e6020840161079a565b90509250929050565b600181811c9082168061087b57607f821691505b60208210810361089957634e487b7160e01b5f52602260045260245ffd5b50919050565b602080825260149082015273496e73756666696369656e742062616c616e636560601b604082015260600190565b634e487b7160e01b5f52601160045260245ffd5b81810381811115610306576103066108cd565b80820180821115610306576103066108cd56feddf252ad1be2c89b69c2b068fc378daa952ba7f163c4a11628f55a4df523b3efa2646970667358221220d14767ee1a71e4f825500523aadb74290b3fbe02d47ecd3d0347d5044e6900be64736f6c63430008140033","linkReferences":{}},"methodIdentifiers":{"allowance(address,address)":"dd62ed3e","approve(address,uint256)":"095ea7b3","balanceOf(address)":"70a08231","burn(address,uint256)":"9dc29fac","decimals()":"313ce567","mint(address,uint256)":"40c10f19","name()":"06fdde03","symbol()":"95d89b41","totalSupply()":"18160ddd","transfer(address,uint256)":"a9059cbb","transferFrom(address,address,uint256)":"23b872dd"},"id":20}