{"abi":[{"type":"constructor","inputs":[{"name":"_collateralToken","type":"address","internalType":"address"},{"name":"_borrowToken","type":"address","internalType":"address"}],"stateMutability":"nonpayable"},{"type":"function","name":"INTEREST_RATE_PER_SECOND","inputs":[],"outputs":[{"name":"","type":"uint256","internalType":"uint256"}],"stateMutability":"view"},{"type":"function","name":"LIQUIDATION_BONUS","inputs":[],"outputs":[{"name":"","type":"uint256","internalType":"uint256"}],"stateMutability":"view"},{"type":"function","name":"LIQUIDATION_THRESHOLD","inputs":[],"outputs":[{"name":"","type":"uint256","internalType":"uint256"}],"stateMutability":"view"},{"type":"function","name":"LTV","inputs":[],"outputs":[{"name":"","type":"uint256","internalType":"uint256"}],"stateMutability":"view"},{"type":"function","name":"PRECISION","inputs":[],"outputs":[{"name":"","type":"uint256","internalType":"uint256"}],"stateMutability":"view"},{"type":"function","name":"borrow","inputs":[{"name":"amount","type":"uint256","internalType":"uint256"}],"outputs":[],"stateMutability":"nonpayable"},{"type":"function","name":"borrowToken","inputs":[],"outputs":[{"name":"","type":"address","internalType":"contract IERC20"}],"stateMutability":"view"},{"type":"function","name":"collateralPrice","inputs":[],"outputs":[{"name":"","type":"uint256","internalType":"uint256"}],"stateMutability":"view"},{"type":"function","name":"collateralToken","inputs":[],"outputs":[{"name":"","type":"address","internalType":"contract IERC20"}],"stateMutability":"view"},{"type":"function","name":"deposit","inputs":[{"name":"amount","type":"uint256","internalType":"uint256"}],"outputs":[],"stateMutability":"nonpayable"},{"type":"function","name":"getAccruedDebt","inputs":[{"name":"user","type":"address","internalType":"address"}],"outputs":[{"name":"","type":"uint256","internalType":"uint256"}],"stateMutability":"view"},{"type":"function","name":"healthFactor","inputs":[{"name":"user","type":"address","internalType":"address"}],"outputs":[{"name":"","type":"uint256","internalType":"uint256"}],"stateMutability":"view"},{"type":"function","name":"liquidate","inputs":[{"name":"user","type":"address","internalType":"address"}],"outputs":[],"stateMutability":"nonpayable"},{"type":"function","name":"positions","inputs":[{"name":"","type":"address","internalType":"address"}],"outputs":[{"name":"deposited","type":"uint256","internalType":"uint256"},{"name":"borrowed","type":"uint256","internalType":"uint256"},{"name":"lastInterestTime","type":"uint256","internalType":"uint256"}],"stateMutability":"view"},{"type":"function","name":"repay","inputs":[{"name":"amount","type":"uint256","internalType":"uint256"}],"outputs":[],"stateMutability":"nonpayable"},{"type":"function","name":"setCollateralPrice","inputs":[{"name":"price","type":"uint256","internalType":"uint256"}],"outputs":[],"stateMutability":"nonpayable"},{"type":"function","name":"withdraw","inputs":[{"name":"amount","type":"uint256","internalType":"uint256"}],"outputs":[],"stateMutability":"nonpayable"},{"type":"event","name":"Borrowed","inputs":[{"name":"user","type":"address","indexed":true,"internalType":"address"},{"name":"amount","type":"uint256","indexed":false,"internalType":"uint256"}],"anonymous":false},{"type":"event","name":"Deposited","inputs":[{"name":"user","type":"address","indexed":true,"internalType":"address"},{"name":"amount","type":"uint256","indexed":false,"internalType":"uint256"}],"anonymous":false},{"type":"event","name":"Liquidated","inputs":[{"name":"user","type":"address","indexed":true,"internalType":"address"},{"name":"liquidator","type":"address","indexed":true,"internalType":"address"},{"name":"debtRepaid","type":"uint256","indexed":false,"internalType":"uint256"},{"name":"collateralSeized","type":"uint256","indexed":false,"internalType":"uint256"}],"anonymous":false},{"type":"event","name":"Repaid","inputs":[{"name":"user","type":"address","indexed":true,"internalType":"address"},{"name":"amount","type":"uint256","indexed":false,"internalType":"uint256"}],"anonymous":false},{"type":"event","name":"Withdrawn","inputs":[{"name":"user","type":"address","indexed":true,"internalType":"address"},{"name":"amount","type":"uint256","indexed":false,"internalType":"uint256"}],"anonymous":false}],"bytecode":{"object":"0x6080604052670de0b6b3a764000060035534801561001b575f80fd5b50604051610fa0380380610fa083398101604081905261003a91610085565b5f80546001600160a01b039384166001600160a01b031991821617909155600180549290931691161790556100b6565b80516001600160a01b0381168114610080575f80fd5b919050565b5f8060408385031215610096575f80fd5b61009f8361006a565b91506100ad6020840161006a565b90509250929050565b610edd806100c35f395ff3fe608060405234801561000f575f80fd5b5060043610610106575f3560e01c80636ad9f9df1161009e578063b2016bd41161006e578063b2016bd414610221578063b6b55f2514610233578063c5ebeaec14610246578063e5654d6414610259578063e58603d01461026c575f80fd5b80636ad9f9df146101e457806390a8ae9b146101f7578063a1865cb5146101ff578063aaf5eb6814610212575f80fd5b8063456dc17a116100d9578063456dc17a1461016057806355f575101461018b5780635891de72146101d357806362965d8e146101dc575f80fd5b80632e1a7d4d1461010a5780632f8655681461011f5780633574d4c414610132578063371fd8e61461014d575b5f80fd5b61011d610118366004610daf565b610277565b005b61011d61012d366004610dc6565b61049d565b61013a600581565b6040519081526020015b60405180910390f35b61011d61015b366004610daf565b610721565b600154610173906001600160a01b031681565b6040516001600160a01b039091168152602001610144565b6101b8610199366004610dc6565b600260208190525f918252604090912080546001820154919092015483565b60408051938452602084019290925290820152606001610144565b61013a60035481565b61013a604b81565b61013a6101f2366004610dc6565b610895565b61013a605081565b61011d61020d366004610daf565b600355565b61013a670de0b6b3a764000081565b5f54610173906001600160a01b031681565b61011d610241366004610daf565b6108a5565b61011d610254366004610daf565b6109c5565b61013a610267366004610dc6565b610b35565b61013a6312e687bf81565b5f811161029f5760405162461bcd60e51b815260040161029690610dec565b60405180910390fd5b6102a833610beb565b335f908152600260205260409020548111156102fd5760405162461bcd60e51b8152602060048201526014602482015273125b9cdd59999a58da595b9d0819195c1bdcda5d60621b6044820152606401610296565b335f90815260026020526040812054610317908390610e2c565b335f90815260026020526040902060010154909150156103ce575f670de0b6b3a7640000600354836103499190610e3f565b6103539190610e56565b335f9081526002602052604081206001015491925090604b90610377906064610e3f565b6103819190610e56565b9050808210156103cb5760405162461bcd60e51b81526020600482015260156024820152744865616c746820666163746f7220746f6f206c6f7760581b6044820152606401610296565b50505b335f90815260026020526040812080548492906103ec908490610e2c565b90915550505f5460405163a9059cbb60e01b8152336004820152602481018490526001600160a01b039091169063a9059cbb906044016020604051808303815f875af115801561043e573d5f803e3d5ffd5b505050506040513d601f19601f820116820180604052508101906104629190610e75565b5060405182815233907f7084f5476618d8e60b11ef0d7d3f06914655adb8793e28ff7f018d4c76d505d5906020015b60405180910390a25050565b6104a681610beb565b670de0b6b3a76400006104b882610c93565b106104fb5760405162461bcd60e51b8152602060048201526013602482015272506f736974696f6e206973206865616c74687960681b6044820152606401610296565b6001600160a01b0381165f908152600260205260409020600101548061055a5760405162461bcd60e51b81526020600482015260146024820152734e6f206465627420746f206c697175696461746560601b6044820152606401610296565b5f6064610568600582610e94565b6105729084610e3f565b61057c9190610e56565b6001600160a01b0384165f908152600260205260409020549091508111156105b857506001600160a01b0382165f908152600260205260409020545b6001600160a01b0383165f9081526002602052604081206001810182905580548392906105e6908490610e2c565b90915550506001546040516323b872dd60e01b8152336004820152306024820152604481018490526001600160a01b03909116906323b872dd906064016020604051808303815f875af115801561063f573d5f803e3d5ffd5b505050506040513d601f19601f820116820180604052508101906106639190610e75565b505f5460405163a9059cbb60e01b8152336004820152602481018390526001600160a01b039091169063a9059cbb906044016020604051808303815f875af11580156106b1573d5f803e3d5ffd5b505050506040513d601f19601f820116820180604052508101906106d59190610e75565b50604080518381526020810183905233916001600160a01b038616917f1f0c6615429d1cdae0dfa233abf91d3b31cdbdd82c8081389832a61e1072f1ea910160405180910390a3505050565b5f81116107405760405162461bcd60e51b815260040161029690610dec565b61074933610beb565b335f90815260026020526040902060010154806107925760405162461bcd60e51b8152602060048201526007602482015266139bc81919589d60ca1b6044820152606401610296565b5f8183116107a057826107a2565b815b335f908152600260205260408120600101805492935083929091906107c8908490610e2c565b9091555050335f818152600260208190526040918290204291015560015490516323b872dd60e01b81526004810192909252306024830152604482018390526001600160a01b0316906323b872dd906064016020604051808303815f875af1158015610836573d5f803e3d5ffd5b505050506040513d601f19601f8201168201806040525081019061085a9190610e75565b5060405181815233907f0516911bcc3a0a7412a44601057c0a0a1ec628bde049a84284bc4288665344889060200160405180910390a2505050565b5f61089f82610c93565b92915050565b5f81116108c45760405162461bcd60e51b815260040161029690610dec565b5f546040516323b872dd60e01b8152336004820152306024820152604481018390526001600160a01b03909116906323b872dd906064016020604051808303815f875af1158015610917573d5f803e3d5ffd5b505050506040513d601f19601f8201168201806040525081019061093b9190610e75565b50335f908152600260205260408120805483929061095a908490610e94565b9091555050335f90815260026020819052604082200154900361098d57335f908152600260208190526040909120429101555b60405181815233907f2da466a7b24304f47e87fa2e1e5a81b9831ce54fec19055ce277ca2f39ba42c49060200160405180910390a250565b5f81116109e45760405162461bcd60e51b815260040161029690610dec565b6109ed33610beb565b5f6109f733610d53565b335f908152600260205260409020600101549091508190610a19908490610e94565b1115610a555760405162461bcd60e51b815260206004820152600b60248201526a22bc31b2b2b23990262a2b60a91b6044820152606401610296565b335f9081526002602052604081206001018054849290610a76908490610e94565b9091555050335f8181526002602081905260409182902042910155600154905163a9059cbb60e01b81526004810192909252602482018490526001600160a01b03169063a9059cbb906044016020604051808303815f875af1158015610ade573d5f803e3d5ffd5b505050506040513d601f19601f82011682018060405250810190610b029190610e75565b5060405182815233907fac59582e5396aca512fa873a2047e7f4c80f8f55d4a06cb34a78a0187f62719f90602001610491565b6001600160a01b0381165f9081526002602081815260408084208151606081018352815481526001820154938101849052930154908301521580610b7b57506040810151155b15610b8a576020015192915050565b5f816040015142610b9b9190610e2c565b90505f670de0b6b3a7640000826312e687bf8560200151610bbc9190610e3f565b610bc69190610e3f565b610bd09190610e56565b9050808360200151610be29190610e94565b95945050505050565b6001600160a01b0381165f90815260026020526040902060018101541580610c1557506002810154155b15610c24574260029091015550565b5f816002015442610c359190610e2c565b90505f670de0b6b3a7640000826312e687bf8560010154610c569190610e3f565b610c609190610e3f565b610c6a9190610e56565b905080836001015f828254610c7f9190610e94565b909155505042600290930192909255505050565b6001600160a01b0381165f908152600260205260408120600101548103610cbc57505f19919050565b6003546001600160a01b0383165f908152600260205260408120549091670de0b6b3a764000091610ced9190610e3f565b610cf79190610e56565b90505f6064610d07605084610e3f565b610d119190610e56565b6001600160a01b0385165f90815260026020526040902060010154909150610d41670de0b6b3a764000083610e3f565b610d4b9190610e56565b949350505050565b6003546001600160a01b0382165f9081526002602052604081205490918291670de0b6b3a764000091610d8591610e3f565b610d8f9190610e56565b90506064610d9e604b83610e3f565b610da89190610e56565b9392505050565b5f60208284031215610dbf575f80fd5b5035919050565b5f60208284031215610dd6575f80fd5b81356001600160a01b0381168114610da8575f80fd5b6020808252601290820152710416d6f756e74206d757374206265203e20360741b604082015260600190565b634e487b7160e01b5f52601160045260245ffd5b8181038181111561089f5761089f610e18565b808202811582820484141761089f5761089f610e18565b5f82610e7057634e487b7160e01b5f52601260045260245ffd5b500490565b5f60208284031215610e85575f80fd5b81518015158114610da8575f80fd5b8082018082111561089f5761089f610e1856fea26469706673582212203d8a8fc33fd397b5b4194922fc4ee9d920dcbb6d3064593bb730ea5d5da97db164736f6c63430008140033","linkReferences":{}},"methodIdentifiers":{"INTEREST_RATE_PER_SECOND()":"e58603d0","LIQUIDATION_BONUS()":"3574d4c4","LIQUIDATION_THRESHOLD()":"90a8ae9b","LTV()":"62965d8e","PRECISION()":"aaf5eb68","borrow(uint256)":"c5ebeaec","borrowToken()":"456dc17a","collateralPrice()":"5891de72","collateralToken()":"b2016bd4","deposit(uint256)":"b6b55f25","getAccruedDebt(address)":"e5654d64","healthFactor(address)":"6ad9f9df","liquidate(address)":"2f865568","positions(address)":"55f57510","repay(uint256)":"371fd8e6","setCollateralPrice(uint256)":"a1865cb5","withdraw(uint256)":"2e1a7d4d"},"id":22}