{"abi":[{"type":"constructor","inputs":[{"name":"_tokenA","type":"address","internalType":"address"},{"name":"_tokenB","type":"address","internalType":"address"}],"stateMutability":"nonpayable"},{"type":"function","name":"FEE_DENOMINATOR","inputs":[],"outputs":[{"name":"","type":"uint256","internalType":"uint256"}],"stateMutability":"view"},{"type":"function","name":"FEE_NUMERATOR","inputs":[],"outputs":[{"name":"","type":"uint256","internalType":"uint256"}],"stateMutability":"view"},{"type":"function","name":"addLiquidity","inputs":[{"name":"amountA","type":"uint256","internalType":"uint256"},{"name":"amountB","type":"uint256","internalType":"uint256"}],"outputs":[{"name":"lpMinted","type":"uint256","internalType":"uint256"}],"stateMutability":"nonpayable"},{"type":"function","name":"getAmountOut","inputs":[{"name":"amountIn","type":"uint256","internalType":"uint256"},{"name":"reserveIn","type":"uint256","internalType":"uint256"},{"name":"reserveOut","type":"uint256","internalType":"uint256"}],"outputs":[{"name":"","type":"uint256","internalType":"uint256"}],"stateMutability":"pure"},{"type":"function","name":"getReserves","inputs":[],"outputs":[{"name":"","type":"uint256","internalType":"uint256"},{"name":"","type":"uint256","internalType":"uint256"}],"stateMutability":"view"},{"type":"function","name":"lpToken","inputs":[],"outputs":[{"name":"","type":"address","internalType":"contract LPToken"}],"stateMutability":"view"},{"type":"function","name":"removeLiquidity","inputs":[{"name":"lpAmount","type":"uint256","internalType":"uint256"}],"outputs":[{"name":"amountA","type":"uint256","internalType":"uint256"},{"name":"amountB","type":"uint256","internalType":"uint256"}],"stateMutability":"nonpayable"},{"type":"function","name":"reserveA","inputs":[],"outputs":[{"name":"","type":"uint256","internalType":"uint256"}],"stateMutability":"view"},{"type":"function","name":"reserveB","inputs":[],"outputs":[{"name":"","type":"uint256","internalType":"uint256"}],"stateMutability":"view"},{"type":"function","name":"swap","inputs":[{"name":"_tokenIn","type":"address","internalType":"address"},{"name":"amountIn","type":"uint256","internalType":"uint256"},{"name":"minAmountOut","type":"uint256","internalType":"uint256"}],"outputs":[{"name":"amountOut","type":"uint256","internalType":"uint256"}],"stateMutability":"nonpayable"},{"type":"function","name":"tokenA","inputs":[],"outputs":[{"name":"","type":"address","internalType":"contract IERC20"}],"stateMutability":"view"},{"type":"function","name":"tokenB","inputs":[],"outputs":[{"name":"","type":"address","internalType":"contract IERC20"}],"stateMutability":"view"},{"type":"event","name":"LiquidityAdded","inputs":[{"name":"provider","type":"address","indexed":true,"internalType":"address"},{"name":"amountA","type":"uint256","indexed":false,"internalType":"uint256"},{"name":"amountB","type":"uint256","indexed":false,"internalType":"uint256"},{"name":"lpMinted","type":"uint256","indexed":false,"internalType":"uint256"}],"anonymous":false},{"type":"event","name":"LiquidityRemoved","inputs":[{"name":"provider","type":"address","indexed":true,"internalType":"address"},{"name":"amountA","type":"uint256","indexed":false,"internalType":"uint256"},{"name":"amountB","type":"uint256","indexed":false,"internalType":"uint256"},{"name":"lpBurned","type":"uint256","indexed":false,"internalType":"uint256"}],"anonymous":false},{"type":"event","name":"Swap","inputs":[{"name":"user","type":"address","indexed":true,"internalType":"address"},{"name":"tokenIn","type":"address","indexed":false,"internalType":"address"},{"name":"amountIn","type":"uint256","indexed":false,"internalType":"uint256"},{"name":"amountOut","type":"uint256","indexed":false,"internalType":"uint256"}],"anonymous":false}],"bytecode":{"object":"0x608060405234801561000f575f80fd5b50604051611af9380380611af983398101604081905261002e916100e5565b5f80546001600160a01b038085166001600160a01b0319928316179092556001805492841692909116919091179055604051309061006b906100bd565b6001600160a01b039091168152602001604051809103905ff080158015610094573d5f803e3d5ffd5b50600280546001600160a01b0319166001600160a01b0392909216919091179055506101169050565b610b8180610f7883390190565b80516001600160a01b03811681146100e0575f80fd5b919050565b5f80604083850312156100f6575f80fd5b6100ff836100ca565b915061010d602084016100ca565b90509250929050565b610e55806101235f395ff3fe608060405234801561000f575f80fd5b50600436106100b1575f3560e01c80635fcbd2851161006e5780635fcbd285146101465780639c8f9f23146101595780639cd441da1461016c5780639f1d0f591461017f578063d73792a914610192578063dc5fa6c51461019b575f80fd5b8063054d50d4146100b55780630902f1ac146100db5780630fc63d10146100f757806319e36f3b1461012157806341cd47bf1461012a5780635f64b55b14610133575b5f80fd5b6100c86100c3366004610ccf565b6101a4565b6040519081526020015b60405180910390f35b6003546004545b604080519283526020830191909152016100d2565b5f54610109906001600160a01b031681565b6040516001600160a01b0390911681526020016100d2565b6100c860045481565b6100c86103e581565b600154610109906001600160a01b031681565b600254610109906001600160a01b031681565b6100e2610167366004610cf8565b61028b565b6100c861017a366004610d0f565b6105ca565b6100c861018d366004610d2f565b61090a565b6100c86103e881565b6100c860035481565b5f8084116101ee5760405162461bcd60e51b81526020600482015260126024820152710416d6f756e74206d757374206265203e20360741b60448201526064015b60405180910390fd5b5f831180156101fc57505f82115b6102405760405162461bcd60e51b8152602060048201526015602482015274496e73756666696369656e7420726573657276657360581b60448201526064016101e5565b5f61024d6103e586610d80565b90505f61025a8483610d80565b90505f8261026a6103e888610d80565b6102749190610d9d565b90506102808183610db0565b979650505050505050565b5f805f83116102d45760405162461bcd60e51b815260206004820152601560248201527404c5020616d6f756e74206d757374206265203e203605c1b60448201526064016101e5565b600254604080516318160ddd60e01b815290515f926001600160a01b0316916318160ddd9160048083019260209291908290030181865afa15801561031b573d5f803e3d5ffd5b505050506040513d601f19601f8201168201806040525081019061033f9190610dcf565b90505f811161037f5760405162461bcd60e51b815260206004820152600c60248201526b4e6f206c697175696469747960a01b60448201526064016101e5565b806003548561038e9190610d80565b6103989190610db0565b925080600454856103a99190610d80565b6103b39190610db0565b91505f831180156103c357505f82115b61040f5760405162461bcd60e51b815260206004820152601d60248201527f496e73756666696369656e74206c6971756964697479206275726e656400000060448201526064016101e5565b600254604051632770a7eb60e21b8152336004820152602481018690526001600160a01b0390911690639dc29fac906044015f604051808303815f87803b158015610458575f80fd5b505af115801561046a573d5f803e3d5ffd5b505050508260035f82825461047f9190610de6565b925050819055508160045f8282546104979190610de6565b90915550505f5460405163a9059cbb60e01b8152336004820152602481018590526001600160a01b039091169063a9059cbb906044016020604051808303815f875af11580156104e9573d5f803e3d5ffd5b505050506040513d601f19601f8201168201806040525081019061050d9190610df9565b5060015460405163a9059cbb60e01b8152336004820152602481018490526001600160a01b039091169063a9059cbb906044016020604051808303815f875af115801561055c573d5f803e3d5ffd5b505050506040513d601f19601f820116820180604052508101906105809190610df9565b50604080518481526020810184905290810185905233907f1dc8bb69df2b8e91fbdcbfcf93d951b3f0000f085a95fe3f7946d6161439245d9060600160405180910390a250915091565b5f80831180156105d957505f82115b61061b5760405162461bcd60e51b81526020600482015260136024820152720416d6f756e7473206d757374206265203e203606c1b60448201526064016101e5565b5f546040516323b872dd60e01b8152336004820152306024820152604481018590526001600160a01b03909116906323b872dd906064016020604051808303815f875af115801561066e573d5f803e3d5ffd5b505050506040513d601f19601f820116820180604052508101906106929190610df9565b506001546040516323b872dd60e01b8152336004820152306024820152604481018490526001600160a01b03909116906323b872dd906064016020604051808303815f875af11580156106e7573d5f803e3d5ffd5b505050506040513d601f19601f8201168201806040525081019061070b9190610df9565b50600254604080516318160ddd60e01b815290515f926001600160a01b0316916318160ddd9160048083019260209291908290030181865afa158015610753573d5f803e3d5ffd5b505050506040513d601f19601f820116820180604052508101906107779190610dcf565b9050805f036107995761079261078d8486610d80565b610c61565b91506107e4565b6003545f906107a88387610d80565b6107b29190610db0565b90505f60045483866107c49190610d80565b6107ce9190610db0565b90508082106107dd57806107df565b815b935050505b5f82116108335760405162461bcd60e51b815260206004820152601d60248201527f496e73756666696369656e74206c6971756964697479206d696e74656400000060448201526064016101e5565b8360035f8282546108449190610d9d565b925050819055508260045f82825461085c9190610d9d565b90915550506002546040516340c10f1960e01b8152336004820152602481018490526001600160a01b03909116906340c10f19906044015f604051808303815f87803b1580156108aa575f80fd5b505af11580156108bc573d5f803e3d5ffd5b505060408051878152602081018790529081018590523392507f64b83944e79c3ce8d4c297411de637c3e102d064677aac0c163976ebdcd6f50e915060600160405180910390a25092915050565b5f80546001600160a01b038581169116148061093357506001546001600160a01b038581169116145b61096f5760405162461bcd60e51b815260206004820152600d60248201526c24b73b30b634b2103a37b5b2b760991b60448201526064016101e5565b5f83116109b35760405162461bcd60e51b81526020600482015260126024820152710416d6f756e74206d757374206265203e20360741b60448201526064016101e5565b5f80546001600160a01b0386811691161490816109d2576004546109d6565b6003545b90505f826109e6576003546109ea565b6004545b90506109f78683836101a4565b935084841015610a495760405162461bcd60e51b815260206004820152601d60248201527f536c6970706167653a20696e73756666696369656e74206f757470757400000060448201526064016101e5565b6040516323b872dd60e01b8152336004820152306024820152604481018790526001600160a01b038816906323b872dd906064016020604051808303815f875af1158015610a99573d5f803e3d5ffd5b505050506040513d601f19601f82011682018060405250810190610abd9190610df9565b508215610b6a578560035f828254610ad59190610d9d565b925050819055508360045f828254610aed9190610de6565b909155505060015460405163a9059cbb60e01b8152336004820152602481018690526001600160a01b039091169063a9059cbb906044016020604051808303815f875af1158015610b40573d5f803e3d5ffd5b505050506040513d601f19601f82011682018060405250810190610b649190610df9565b50610c0b565b8560045f828254610b7b9190610d9d565b925050819055508360035f828254610b939190610de6565b90915550505f5460405163a9059cbb60e01b8152336004820152602481018690526001600160a01b039091169063a9059cbb906044016020604051808303815f875af1158015610be5573d5f803e3d5ffd5b505050506040513d601f19601f82011682018060405250810190610c099190610df9565b505b604080516001600160a01b03891681526020810188905290810185905233907ffa2dda1cc1b86e41239702756b13effbc1a092b5c57e3ad320fbe4f3b13fe2359060600160405180910390a25050509392505050565b5f6003821115610cc05750805f610c79600283610db0565b610c84906001610d9d565b90505b81811015610cba57905080600281610c9f8186610db0565b610ca99190610d9d565b610cb39190610db0565b9050610c87565b50919050565b8115610cca575060015b919050565b5f805f60608486031215610ce1575f80fd5b505081359360208301359350604090920135919050565b5f60208284031215610d08575f80fd5b5035919050565b5f8060408385031215610d20575f80fd5b50508035926020909101359150565b5f805f60608486031215610d41575f80fd5b83356001600160a01b0381168114610d57575f80fd5b95602085013595506040909401359392505050565b634e487b7160e01b5f52601160045260245ffd5b8082028115828204841417610d9757610d97610d6c565b92915050565b80820180821115610d9757610d97610d6c565b5f82610dca57634e487b7160e01b5f52601260045260245ffd5b500490565b5f60208284031215610ddf575f80fd5b5051919050565b81810381811115610d9757610d97610d6c565b5f60208284031215610e09575f80fd5b81518015158114610e18575f80fd5b939250505056fea26469706673582212205471a9a147a75a7662689ec1ed9d8a1f7a0a7358f8b6d6e44056a11c3c82b86764736f6c6343000814003360c060405260086080908152672628102a37b5b2b760c11b60a0525f9062000028908262000155565b5060408051808201909152600381526213141560ea1b602082015260019062000052908262000155565b506002805460ff191660121790553480156200006c575f80fd5b5060405162000b8138038062000b818339810160408190526200008f916200021d565b600680546001600160a01b0319166001600160a01b03929092169190911790556200024c565b634e487b7160e01b5f52604160045260245ffd5b600181811c90821680620000de57607f821691505b602082108103620000fd57634e487b7160e01b5f52602260045260245ffd5b50919050565b601f82111562000150575f81815260208120601f850160051c810160208610156200012b5750805b601f850160051c820191505b818110156200014c5782815560010162000137565b5050505b505050565b81516001600160401b03811115620001715762000171620000b5565b6200018981620001828454620000c9565b8462000103565b602080601f831160018114620001bf575f8415620001a75750858301515b5f19600386901b1c1916600185901b1785556200014c565b5f85815260208120601f198616915b82811015620001ef57888601518255948401946001909101908401620001ce565b50858210156200020d57878501515f19600388901b60f8161c191681555b5050505050600190811b01905550565b5f602082840312156200022e575f80fd5b81516001600160a01b038116811462000245575f80fd5b9392505050565b610927806200025a5f395ff3fe608060405234801561000f575f80fd5b50600436106100b1575f3560e01c806340c10f191161006e57806340c10f191461016a57806370a082311461017f57806395d89b411461019e5780639dc29fac146101a6578063a9059cbb146101b9578063dd62ed3e146101cc575f80fd5b806306fdde03146100b5578063095ea7b3146100d357806318160ddd146100f657806323b872dd1461010d5780632a94394514610120578063313ce5671461014b575b5f80fd5b6100bd6101f6565b6040516100ca9190610719565b60405180910390f35b6100e66100e136600461077f565b610281565b60405190151581526020016100ca565b6100ff60035481565b6040519081526020016100ca565b6100e661011b3660046107a7565b6102ed565b600654610133906001600160a01b031681565b6040516001600160a01b0390911681526020016100ca565b6002546101589060ff1681565b60405160ff90911681526020016100ca565b61017d61017836600461077f565b61046d565b005b6100ff61018d3660046107e0565b60046020525f908152604090205481565b6100bd610526565b61017d6101b436600461077f565b610533565b6100e66101c736600461077f565b61061b565b6100ff6101da366004610800565b600560209081525f928352604080842090915290825290205481565b5f805461020290610831565b80601f016020809104026020016040519081016040528092919081815260200182805461022e90610831565b80156102795780601f1061025057610100808354040283529160200191610279565b820191905f5260205f20905b81548152906001019060200180831161025c57829003601f168201915b505050505081565b335f8181526005602090815260408083206001600160a01b038716808552925280832085905551919290917f8c5be1e5ebec7d5bd14f71427d1e84f3dd0314c0f7b2291e5b200ac8c7c3b925906102db9086815260200190565b60405180910390a35060015b92915050565b6001600160a01b0383165f9081526004602052604081205482111561032d5760405162461bcd60e51b815260040161032490610869565b60405180910390fd5b6001600160a01b0384165f9081526005602090815260408083203384529091529020548211156103985760405162461bcd60e51b8152602060048201526016602482015275496e73756666696369656e7420616c6c6f77616e636560501b6044820152606401610324565b6001600160a01b0384165f908152600560209081526040808320338452909152812080548492906103ca9084906108ab565b90915550506001600160a01b0384165f90815260046020526040812080548492906103f69084906108ab565b90915550506001600160a01b0383165f90815260046020526040812080548492906104229084906108be565b92505081905550826001600160a01b0316846001600160a01b03165f805160206108d28339815191528460405161045b91815260200190565b60405180910390a35060019392505050565b6006546001600160a01b031633146104b25760405162461bcd60e51b81526020600482015260086024820152674f6e6c7920414d4d60c01b6044820152606401610324565b8060035f8282546104c391906108be565b90915550506001600160a01b0382165f90815260046020526040812080548392906104ef9084906108be565b90915550506040518181526001600160a01b038316905f905f805160206108d2833981519152906020015b60405180910390a35050565b6001805461020290610831565b6006546001600160a01b031633146105785760405162461bcd60e51b81526020600482015260086024820152674f6e6c7920414d4d60c01b6044820152606401610324565b6001600160a01b0382165f908152600460205260409020548111156105af5760405162461bcd60e51b815260040161032490610869565b8060035f8282546105c091906108ab565b90915550506001600160a01b0382165f90815260046020526040812080548392906105ec9084906108ab565b90915550506040518181525f906001600160a01b038416905f805160206108d28339815191529060200161051a565b5f6001600160a01b0383166106725760405162461bcd60e51b815260206004820152601860248201527f5472616e7366657220746f207a65726f206164647265737300000000000000006044820152606401610324565b335f908152600460205260409020548211156106a05760405162461bcd60e51b815260040161032490610869565b335f90815260046020526040812080548492906106be9084906108ab565b90915550506001600160a01b0383165f90815260046020526040812080548492906106ea9084906108be565b90915550506040518281526001600160a01b0384169033905f805160206108d2833981519152906020016102db565b5f6020808352835180828501525f5b8181101561074457858101830151858201604001528201610728565b505f604082860101526040601f19601f8301168501019250505092915050565b80356001600160a01b038116811461077a575f80fd5b919050565b5f8060408385031215610790575f80fd5b61079983610764565b946020939093013593505050565b5f805f606084860312156107b9575f80fd5b6107c284610764565b92506107d060208501610764565b9150604084013590509250925092565b5f602082840312156107f0575f80fd5b6107f982610764565b9392505050565b5f8060408385031215610811575f80fd5b61081a83610764565b915061082860208401610764565b90509250929050565b600181811c9082168061084557607f821691505b60208210810361086357634e487b7160e01b5f52602260045260245ffd5b50919050565b602080825260149082015273496e73756666696369656e742062616c616e636560601b604082015260600190565b634e487b7160e01b5f52601160045260245ffd5b818103818111156102e7576102e7610897565b808201808211156102e7576102e761089756feddf252ad1be2c89b69c2b068fc378daa952ba7f163c4a11628f55a4df523b3efa26469706673582212206140820c3b87d4643b5cb31eba4f68ef0425af4ec94391ea77f6b7697562982264736f6c63430008140033","linkReferences":{}},"methodIdentifiers":{"FEE_DENOMINATOR()":"d73792a9","FEE_NUMERATOR()":"41cd47bf","addLiquidity(uint256,uint256)":"9cd441da","getAmountOut(uint256,uint256,uint256)":"054d50d4","getReserves()":"0902f1ac","lpToken()":"5fcbd285","removeLiquidity(uint256)":"9c8f9f23","reserveA()":"dc5fa6c5","reserveB()":"19e36f3b","swap(address,uint256,uint256)":"9f1d0f59","tokenA()":"0fc63d10","tokenB()":"5f64b55b"},"id":19}